{
  "contractName": "EthDrop",
  "abi": [
    {
      "anonymous": false,
      "inputs": [
        {
          "indexed": true,
          "internalType": "address",
          "name": "sender",
          "type": "address"
        },
        {
          "indexed": true,
          "internalType": "address",
          "name": "receiver",
          "type": "address"
        },
        {
          "indexed": false,
          "internalType": "string",
          "name": "data",
          "type": "string"
        },
        {
          "indexed": true,
          "internalType": "uint256",
          "name": "timestamp",
          "type": "uint256"
        }
      ],
      "name": "Transaction",
      "type": "event"
    },
    {
      "constant": false,
      "inputs": [
        {
          "internalType": "address",
          "name": "_to",
          "type": "address"
        },
        {
          "internalType": "string",
          "name": "_data",
          "type": "string"
        }
      ],
      "name": "transferFile",
      "outputs": [],
      "payable": false,
      "stateMutability": "nonpayable",
      "type": "function"
    }
  ],
  "bytecode": "0x608060405234801561001057600080fd5b50610195806100206000396000f3fe608060405234801561001057600080fd5b506004361061002b5760003560e01c80630845081814610030575b600080fd5b6100c76004803603604081101561004657600080fd5b81019080803573ffffffffffffffffffffffffffffffffffffffff1690602001909291908035906020019064010000000081111561008357600080fd5b82018360208201111561009557600080fd5b803590602001918460018302840111640100000000831117156100b757600080fd5b90919293919293905050506100c9565b005b428373ffffffffffffffffffffffffffffffffffffffff163373ffffffffffffffffffffffffffffffffffffffff167f3235b6a6d0fc9aa41988d844aac9e234e482b9654df600f4cf32054e64824699858560405180806020018281038252848482818152602001925080828437600081840152601f19601f820116905080830192505050935050505060405180910390a450505056fea265627a7a7231582095b66a83ab524ad5af447b050a4b6fc5e900a6286d2d75bb8ae12ec7d70ddb8964736f6c63430005100032",
  "source": "// SPDX-License-Identifier: GPL-3.0\npragma solidity >=0.5.0 <0.9.0;\n\n/**\n * @title EthDrop\n * @author Amsavarthan Lv.\n * @dev Storing sender, receiver & ipfs hash in event for lower gas fees.\n **/\n\ncontract EthDrop {\n\n  event Transaction(address indexed sender, address indexed receiver, string data, uint indexed timestamp);\n\n  function transferFile(address _to, string calldata _data) external {\n    emit Transaction(msg.sender, _to, _data, block.timestamp);\n  }\n\n}\n",
  "sourcePath": "/Users/lvamsavarthan/Documents/Projects/React/DApp/ethdrop/client/truffle/contracts/EthDrop.sol",
  "compiler": {
    "name": "solc",
    "version": "0.5.16+commit.9c3226ce.Emscripten.clang"
  },
  "schemaVersion": "3.4.1",
  "updatedAt": "2021-06-29T09:03:19.800Z",
  "devdoc": {
    "author": "Amsavarthan Lv.",
    "details": "Storing sender, receiver & ipfs hash in event for lower gas fees.*",
    "methods": {},
    "title": "EthDrop"
  },
  "userdoc": {
    "methods": {}
  }
}